:030B9B00015800FE
:10068800E4F53F75900F85903E7590F0E590423EF9
:100698007590FFE558146021147003020755147013
:1006A8000302075F2403600302076CE53EF470034E
:1006B80002076C75580102076CE53EB4FF03020798
:1006C80064755802E53E1202DE07377707237B0779
:1006D800147D07057E0732B70728BB0719BD070A2F
:1006E800BE073CD7072DDB071EDD070FDE0750E7E7
:1006F800074BEB0746ED0741EE0000076C753F41DD
:100708008062753F33805D753F328058753F428007
:1007180053753F36804E753F358049753F43804459
:10072800753F39803F753F38803A753F468035754B
:100738003F448030753F30802B753F318026753FB0
:10074800348021753F37801C753F458017E53EB4DE
:10075800FF12755803800DE53EB4FF05E4F5588097
:0607680003755802AF3FCB
:01076E002268
:100B47007580FFC2A6D2A5D2A7AF80C2A7EF20E7C4
:010B5700F6A7
:010B5800227A
:100B5900AE07120B47C2A6120ADCD2A7120AE0C2DC
:020B6900A722C1
:100B6B00AE07120B47D2A6120ADCD2A7120AE0C2BA
:020B7B00A722AF
:100B1F00ED70048F578005EF2440F557E55744805B
:040B2F00FF020B595D
:100AB4008B548A558956120B1FAB54AA55A956124A
:100AC400022F60130556E5567002055514F91202FB
:080AD4002FFF120B6B80E222E0
:050003007F01020B5912
:080ADC00C2A58E807F0A7E0096
:100AE400D3EF9400EE940040147D6E7C00ED1D70F5
:0D0AF400011CED4C70F7EF1F70E61E80E353
:010B010022D1
:100B33007F38120B597F0C120B597F06120B597F0A
:040B430001020B5947
:0C0BA80077656C636F6D6520796F7500D8
:100B0200120B7D120B33C2A0C2A1C2A27BFF7A0BD1
:0D0B120079A8E4FD7F01120AB4D28C80FEA8
:100B7D00758901758CD8758AF0D2AFD2A9C28C2235
:03000B00020A2CBA
:100A2C00C0E0C0F0C083C082C0D075D000C000C090
:100A3C0001C002C003C004C005C006C007758CD835
:100A4C00758AF012068812000ED007D006D005D099
:100A5C0004D003D002D001D000D0D0D082D083D02B
:040A6C00F0D0E032B4
:10076F006E41006E42006E430073756D6D007468CC
:10077F0065206D6F6E6579206C65737300706C65A5
:10078F006120696E707574206D6F726520007461E1
:10079F006B6520676F6F6473007468616E6B7300B5
:1007AF006D6F76652077616974007468616E6B2078
:1007BF00796F750077656C636F6D6520796F750064
:1007CF0063686172676520796F7520524D42006EC4
:1007DF00756D2072696365007072696365202032E0
:1007EF007975616E006E756D2020766567310070CA
:1007FF00726963652020347975616E006E756D20A6
:10080F0020766567320070726963652020357975CF
:10081F00616E00696E707574206D6F6E657900770B
:10082F0061697420666F722061636300776C636F18
:07083F006D6520796F750063
:090B9E00040800000000011C0025
:0D0B8D007F7F7EEB7D20DDFEDEFADFF600CF
:010B9A002238
:10099100E4FFFEFDFCAB0FAA0EA90DA80CC31202C9
:1009A100CD6007D2A0120B8DC2A0E4FFFEFDFCAB0F
:1009B10013AA12A911A810C31202CD6007D2A11265
:1009C1000B8DC2A1E4FFFEFDFCAB17AA16A915A869
:0F09D10014C31202CD6007D2A2120B8DC2A22254
:070846007B007A007921FC20
:0E084D008B3F8A4089418F458E448D438C42FB
:10085B00E4F546F547EC33501C1202A98F458E4444
:10086B008D438C420541E5417002054014F9742D0E
:10087B001202480547E47B0AFAF9F8AF45AE44ADDE
:10088B0043AC42120A70AF03AE46054674482EF8CD
:10089B00A607AF45AE44AD43AC42E47B0AFAF9F888
:1008AB00120A708F458E448D438C42E4FFFEFDFC93
:1008BB00AB45AA44A943A842D31202B750B7E546A9
:1008CB002547F547AF461546D3EF64809480401D0E
:1008DB0074482546F8E62430FFAB3F0541E541AAB5
:1008EB00407002054014F9EF12024880D7AB3FAAC3
:0908FB0040A941E4120248AF4794
:0109040022D0
:10056300120003E47F04FEFDFCAB38AA37A936A8CA
:100573003512025AC004C005C006C007E47F02FE5C
:10058300FDFCAB34AA33A932A83112025AD003D0EE
:1005930002D001D000EF2BFFEE3AFEED39FDEC382F
:1005A300FCC004C005C006C007E47F05FEFDFCAB2C
:1005B3003CAA3BA93AA83912025AD003D002D0016F
:1005C300D000EB2FF530EA3EF52FE93DF52EE83C60
:1005D300F52D7BFF7A07796FE4FDFF120AB47B00E8
:1005E3007A007921AF34AE33AD32AC3112084D8F7E
:1005F3001C7B007A007921E4FD7F03120AB47BFFA0
:100603007A077972E4FD7F08120AB47B007A0079D5
:1006130021AF38AE37AD36AC3512084D8F1C7B0099
:100623007A007921E4FD7F0B120AB47BFF7A077904
:10063300757D01E4FF120AB47B007A007921AF3C97
:10064300AE3BAD3AAC3912084D8F1C7B007A007972
:10065300217D017F03120AB47BFF7A0779787D013C
:100663007F08120AB47B007A007921AF30AE2FAD38
:100673002EAC2D12084D8F1C7B007A0079217D0151
:050683007F0C020AB427
:1003D200AF0BAE0AAD09AC08AB20AA1FA91EA81D1F
:1003E200D31202CD40247BFF7A07797DE4FD7F01A1
:1003F200120AB47BFF7A07798C7D017F01120AB45D
:10040200E4F50BF50AF509F50822AF0BAE0AAD09C2
:10041200AC08AB20AA1FA91EA81DC31202CD7030C2
:100422001200037BFF7A07799DE4FD7F01120AB473
:100432007BFF7A0779A87D017F01120AB4E4F50BEC
:10044200F50AF509F508F520F51FF51EF51D80766C
:10045200AF0BAE0AAD09AC08AB20AA1FA91EA81D9E
:10046200C31202CD40030205621200037BFF7A072A
:1004720079CFE4FD7F01120AB4C3E50B9520F51B89
:10048200E50A951FF51AE509951EF519E508951D6A
:10049200F518AF1BAE1AAD191208468F1C7B007AF5
:1004A2000079217D01120AB47BFF7A0779A87D01C8
:1004B2007F06120AB4E4F520F51FF51EF51DF50BB3
:1004C200F50AF509F508120B8D1200037BFF7A0776
:1004D20079AFE4FD7F01120AB41209911200037B85
:1004E200FF7A0779B9E4FD7F01120AB4E534250FDA
:1004F200F534E533350EF533E532350DF532E531B8
:10050200350CF531E5382513F538E5373512F53771
:10051200E5363511F536E5353510F535E53C251767
:10052200F53CE53B3516F53BE53A3515F53AE53947
:100532003514F539E4F50FF50EF50DF50CF513F557
:1005420012F511F510F517F516F515F514120B8DB8
:100552001200037BFF7A0779C3E4FD7F01120AB41C
:010562002276
:1009E0008F3EE47F0AFEFDFCAB0BAA0AA909A8080A
:1009F00012025AA804A905AA06AB07E4FCFDFEEB07
:100A0000253EF50BEE3AF50AED39F509EC38F50817
:100A1000AF0BAE0AAD091208468F1CC37410951CAB
:0C0A2000FF7B007A0079217D01020AB4FE
:10000E001206888F3DE53D24BE6063147003020026
:10001E00D12402600302013A1200037BFF7A0779B2
:10002E00DEE4FD7F01120AB47BFF7A0779E77D01DA
:10003E007F01120AB4E5202402F520E4351FF51FD6
:10004E00E4351EF51EE4351DF51DE50F2401F50FF3
:10005E00E4350EF50EE4350DF50DE4350CF50C7B9F
:10006E00007A007921AF0FAE0EAD0D020124120001
:10007E00037BFF7A0779F4E4FD7F01120AB47BFF5C
:10008E007A0779FE7D017F01120AB4E5202404F57A
:10009E0020E4351FF51FE4351EF51EE4351DF51D54
:1000AE00E5132401F513E43512F512E43511F511BB
:1000BE00E43510F5107B007A007921AF13AE12AD46
:1000CE001180531200037BFF7A08790BE4FD7F0148
:1000DE00120AB47BFF7A0879157D017F01120AB4EA
:1000EE00E5202405F520E4351FF51FE4351EF51E29
:1000FE00E4351DF51DE5172401F517E43516F51643
:10010E00E43515F515E43514F5147B007A007921E4
:10011E00AF17AE16AD15FC12084D8F1CE51C240B47
:10012E00FF7B007A007921E4FD120AB4E53DC39409
:10013E00304025E53DD39439501EE4FFFEFDFCAB67
:10014E0020AA1FA91EA81DC31202CD600B12000308
:10015E00E53D24D0FF0209E0E53D6444707CFFFEDE
:10016E00FDFCAB20AA1FA91EA81DC31202CD60194B
:10017E00AF0BAE0AAD09AC08EC4D4E4F700B120032
:10018E00037BFF7A087922804AAF0BAE0AAD09AC29
:10019E0008EC4D4E4F60131200037BFF7A08792E48
:1001AE00E4FD7F01120AB40203D2AF0BAE0AAD0911
:1001BE00AC08EC4D4E4F7068FFFEFDFCAB20AA1F45
:1001CE00A91EA81DC31202CD70561200037BFF7A22
:1001DE0008793BE4FD7F01020AB4E53DB445030214
:1001EE000563E53DB446391200037BFF7A08793B7F
:1001FE00E4FD7F01120AB4E4F520F51FF51EF51D8E
:10020E00F50BF50AF509F508F50FF50EF50DF50CDC
:10021E00F513F512F511F510F517F516F515F5148C
:01022E0022AD
:03000000020905ED
:0C090500787FE4F6D8FD75815802094C9B
:10022F00BB010689828A83E0225002E722BBFE02CD
:09023F00E32289828A83E4932200
:10024800BB010689828A83F0225002F722BBFE0195
:02025800F3228F
:10025A00E88FF0A4CC8BF0A42CFCE98EF0A42CFC43
:10026A008AF0EDA42CFCEA8EF0A4CDA8F08BF0A4C1
:10027A002DCC3825F0FDE98FF0A42CCD35F0FCEB20
:10028A008EF0A4FEA9F0EB8FF0A4CFC5F02ECD39E5
:0F029A00FEE43CFCEAA42DCE35F0FDE43CFC2252
:100A7000C2D5E830E70FB2D5E4C39BFBE49AFAE4B1
:100A800099F9E498F8EC30E717B2D5120AA61203E8
:100A900040E4C39BFBE49AFAE499F9E498F88003F4
:100AA00012034030D50DE4C39FFFE49EFEE49DFD9C
:040AB000E49CFC22A4
:0E02A900C3E49FFFE49EFEE49DFDE49CFC2266
:1002B700EB9FF5F0EA9E42F0E99D42F0EC6480C8BE
:0602C70064809845F0225E
:1002CD00EB9FF5F0EA9E42F0E99D42F0E89C45F087
:0102DD0022FE
:1002DE00D083D082F8E4937012740193700DA3A3AF
:1002EE0093F8740193F5828883E4737402936860C3
:0602FE00EFA3A3A380DFC3
:10091100020B02E493A3F8E493A34003F68001F2EF
:1009210008DFF48029E493A3F85407240CC8C333E7
:10093100C4540F4420C8834004F456800146F6DFB6
:10094100E4800B0102040810204080900B9BE47EA0
:10095100019360BCA3FF543F30E509541FFEE493AB
:10096100A360010ECF54C025E060A840B8E493A372
:10097100FAE493A3F8E493A3C8C582C8CAC583CA9D
:10098100F0A3C8C582C8CAC583CADFE9DEE780BE55
:010BA700004D
:1003040075F008758200EF2FFFEE33FECD33CDCCB0
:1003140033CCC58233C5829BED9AEC99E582984033
:100324000CF582EE9BFEED9AFDEC99FC0FD5F0D610
:10033400E4CEFBE4CDFAE4CCF9A88222B800C1B93A
:100344000059BA002DEC8BF084CFCECDFCE5F0CB78
:10035400F97818EF2FFFEE33FEED33FDEC33FCEBB1
:1003640033FB10D703994004EB99FB0FD8E5E4F96C
:10037400FA227818EF2FFFEE33FEED33FDEC33FC59
:10038400C933C910D7059BE99A4007EC9BFCE99A4D
:10039400F90FD8E0E4C9FAE4CCFB2275F010EF2F92
:1003A400FFEE33FEED33FDCC33CCC833C810D70792
:1003B4009BEC9AE899400AED9BFDEC9AFCE899F8CD
:0E03C4000FD5F0DAE4CDFBE4CCFAE4C8F92260
:00000001FF
